{
  "contractName": "ParkingMeter",
  "abi": [
    {
      "constant": false,
      "inputs": [
        {
          "name": "user",
          "type": "address"
        }
      ],
      "name": "banUser",
      "outputs": [],
      "payable": false,
      "stateMutability": "nonpayable",
      "type": "function"
    },
    {
      "constant": true,
      "inputs": [],
      "name": "cityWallet",
      "outputs": [
        {
          "name": "",
          "type": "address"
        }
      ],
      "payable": false,
      "stateMutability": "view",
      "type": "function"
    },
    {
      "constant": true,
      "inputs": [],
      "name": "getCoins",
      "outputs": [
        {
          "name": "",
          "type": "uint256"
        }
      ],
      "payable": false,
      "stateMutability": "view",
      "type": "function"
    },
    {
      "constant": true,
      "inputs": [
        {
          "name": "user",
          "type": "address"
        }
      ],
      "name": "isParked",
      "outputs": [
        {
          "name": "",
          "type": "bool"
        }
      ],
      "payable": false,
      "stateMutability": "view",
      "type": "function"
    },
    {
      "constant": true,
      "inputs": [],
      "name": "cityWalletBalance",
      "outputs": [
        {
          "name": "",
          "type": "uint256"
        }
      ],
      "payable": false,
      "stateMutability": "view",
      "type": "function"
    },
    {
      "constant": true,
      "inputs": [],
      "name": "decimals",
      "outputs": [
        {
          "name": "",
          "type": "uint8"
        }
      ],
      "payable": false,
      "stateMutability": "view",
      "type": "function"
    },
    {
      "constant": false,
      "inputs": [],
      "name": "withdrawCityBalance",
      "outputs": [],
      "payable": false,
      "stateMutability": "nonpayable",
      "type": "function"
    },
    {
      "constant": false,
      "inputs": [
        {
          "name": "value",
          "type": "uint256"
        }
      ],
      "name": "setMaxHours",
      "outputs": [],
      "payable": false,
      "stateMutability": "nonpayable",
      "type": "function"
    },
    {
      "constant": true,
      "inputs": [],
      "name": "getHourPrice",
      "outputs": [
        {
          "name": "",
          "type": "uint256"
        }
      ],
      "payable": false,
      "stateMutability": "view",
      "type": "function"
    },
    {
      "constant": false,
      "inputs": [
        {
          "name": "price",
          "type": "uint256"
        }
      ],
      "name": "setHourPrice",
      "outputs": [],
      "payable": false,
      "stateMutability": "nonpayable",
      "type": "function"
    },
    {
      "constant": false,
      "inputs": [
        {
          "name": "user",
          "type": "address"
        }
      ],
      "name": "resetScoring",
      "outputs": [],
      "payable": true,
      "stateMutability": "payable",
      "type": "function"
    },
    {
      "constant": false,
      "inputs": [
        {
          "name": "_cityWallet",
          "type": "address"
        }
      ],
      "name": "setCityWallet",
      "outputs": [],
      "payable": false,
      "stateMutability": "nonpayable",
      "type": "function"
    },
    {
      "constant": true,
      "inputs": [],
      "name": "owner",
      "outputs": [
        {
          "name": "",
          "type": "address"
        }
      ],
      "payable": false,
      "stateMutability": "view",
      "type": "function"
    },
    {
      "constant": false,
      "inputs": [],
      "name": "buyCoins",
      "outputs": [],
      "payable": true,
      "stateMutability": "payable",
      "type": "function"
    },
    {
      "constant": false,
      "inputs": [],
      "name": "stopParking",
      "outputs": [],
      "payable": false,
      "stateMutability": "nonpayable",
      "type": "function"
    },
    {
      "constant": false,
      "inputs": [
        {
          "name": "location",
          "type": "string"
        }
      ],
      "name": "startParking",
      "outputs": [],
      "payable": true,
      "stateMutability": "payable",
      "type": "function"
    },
    {
      "constant": true,
      "inputs": [
        {
          "name": "user",
          "type": "address"
        }
      ],
      "name": "whenParked",
      "outputs": [
        {
          "name": "",
          "type": "uint256"
        }
      ],
      "payable": false,
      "stateMutability": "view",
      "type": "function"
    },
    {
      "constant": true,
      "inputs": [],
      "name": "getMaxHours",
      "outputs": [
        {
          "name": "",
          "type": "uint256"
        }
      ],
      "payable": false,
      "stateMutability": "view",
      "type": "function"
    },
    {
      "constant": false,
      "inputs": [],
      "name": "withdrawCoins",
      "outputs": [],
      "payable": false,
      "stateMutability": "nonpayable",
      "type": "function"
    },
    {
      "inputs": [],
      "payable": false,
      "stateMutability": "nonpayable",
      "type": "constructor"
    },
    {
      "anonymous": false,
      "inputs": [
        {
          "indexed": false,
          "name": "user",
          "type": "address"
        },
        {
          "indexed": false,
          "name": "startTime",
          "type": "uint256"
        },
        {
          "indexed": false,
          "name": "value",
          "type": "uint256"
        },
        {
          "indexed": false,
          "name": "location",
          "type": "string"
        }
      ],
      "name": "LogCarHasParked",
      "type": "event"
    },
    {
      "anonymous": false,
      "inputs": [
        {
          "indexed": false,
          "name": "user",
          "type": "address"
        },
        {
          "indexed": false,
          "name": "cost",
          "type": "uint256"
        },
        {
          "indexed": false,
          "name": "time",
          "type": "uint256"
        }
      ],
      "name": "LogCarHasLeft",
      "type": "event"
    }
  ],
  "bytecode": "0x6060604052341561000f57600080fd5b336000806101000a81548173ffffffffffffffffffffffffffffffffffffffff021916908373ffffffffffffffffffffffffffffffffffffffff160217905550613840600381905550610190600281905550600360025460035402026004819055506000600581905550611296806100886000396000f300606060405260043610610107576000357c0100000000000000000000000000000000000000000000000000000000900463ffffffff16806310d86b1f1461010c57806311bc7bc71461014557806313c390ef1461019a5780631bd3a60b146101c3578063312a8aae14610214578063313ce5671461023d5780633489a68a1461026c5780634c3df903146102815780635046d4fb146102a45780638934969f146102cd57806389529c4c146102f057806389c7d0aa1461031e5780638da5cb5b146103575780639a777d5d146103ac578063abe538ba146103b6578063bb6940c7146103cb578063bed32f261461041d578063c8da44251461046a578063ffbb62a314610493575b600080fd5b341561011757600080fd5b610143600480803573ffffffffffffffffffffffffffffffffffffffff169060200190919050506104a8565b005b341561015057600080fd5b6101586105f1565b604051808273ffffffffffffffffffffffffffffffffffffffff1673ffffffffffffffffffffffffffffffffffffffff16815260200191505060405180910390f35b34156101a557600080fd5b6101ad610617565b6040518082815260200191505060405180910390f35b34156101ce57600080fd5b6101fa600480803573ffffffffffffffffffffffffffffffffffffffff16906020019091905050610661565b604051808215151515815260200191505060405180910390f35b341561021f57600080fd5b6102276106ba565b6040518082815260200191505060405180910390f35b341561024857600080fd5b6102506106c0565b604051808260ff1660ff16815260200191505060405180910390f35b341561027757600080fd5b61027f6106c5565b005b341561028c57600080fd5b6102a26004808035906020019091905050610765565b005b34156102af57600080fd5b6102b76107ca565b6040518082815260200191505060405180910390f35b34156102d857600080fd5b6102ee60048080359060200190919050506107d4565b005b61031c600480803573ffffffffffffffffffffffffffffffffffffffff16906020019091905050610839565b005b341561032957600080fd5b610355600480803573ffffffffffffffffffffffffffffffffffffffff169060200190919050506108ec565b005b341561036257600080fd5b61036a6109c7565b604051808273ffffffffffffffffffffffffffffffffffffffff1673ffffffffffffffffffffffffffffffffffffffff16815260200191505060405180910390f35b6103b46109ec565b005b34156103c157600080fd5b6103c9610a80565b005b61041b600480803590602001908201803590602001908080601f01602080910402602001604051908101604052809392919081815260200183838082843782019150505050505091905050610cf5565b005b341561042857600080fd5b610454600480803573ffffffffffffffffffffffffffffffffffffffff1690602001909190505061101e565b6040518082815260200191505060405180910390f35b341561047557600080fd5b61047d61106a565b6040518082815260200191505060405180910390f35b341561049e57600080fd5b6104a6611074565b005b6000809054906101000a900473ffffffffffffffffffffffffffffffffffffffff1673ffffffffffffffffffffffffffffffffffffffff163373ffffffffffffffffffffffffffffffffffffffff1614806105505750600160009054906101000a900473ffffffffffffffffffffffffffffffffffffffff1673ffffffffffffffffffffffffffffffffffffffff163373ffffffffffffffffffffffffffffffffffffffff16145b151561055b57600080fd5b6105a8600660008373ffffffffffffffffffffffffffffffffffffffff1673ffffffffffffffffffffffffffffffffffffffff1681526020019081526020016000206005015460016111a7565b600660008373ffffffffffffffffffffffffffffffffffffffff1673ffffffffffffffffffffffffffffffffffffffff1681526020019081526020016000206005018190555050565b600160009054906101000a900473ffffffffffffffffffffffffffffffffffffffff1681565b6000600660003373ffffffffffffffffffffffffffffffffffffffff1673ffffffffffffffffffffffffffffffffffffffff16815260200190815260200160002060000154905090565b6000600660008373ffffffffffffffffffffffffffffffffffffffff1673ffffffffffffffffffffffffffffffffffffffff16815260200190815260200160002060030160009054906101000a900460ff169050919050565b60055481565b600281565b600160009054906101000a900473ffffffffffffffffffffffffffffffffffffffff1673ffffffffffffffffffffffffffffffffffffffff163373ffffffffffffffffffffffffffffffffffffffff1614151561072157600080fd5b3373ffffffffffffffffffffffffffffffffffffffff166108fc6005549081150290604051600060405180830381858888f19350505050151561076357600080fd5b565b6000809054906101000a900473ffffffffffffffffffffffffffffffffffffffff1673ffffffffffffffffffffffffffffffffffffffff163373ffffffffffffffffffffffffffffffffffffffff161415156107c057600080fd5b8060038190555050565b6000600254905090565b6000809054906101000a900473ffffffffffffffffffffffffffffffffffffffff1673ffffffffffffffffffffffffffffffffffffffff163373ffffffffffffffffffffffffffffffffffffffff1614151561082f57600080fd5b8060028190555050565b600160009054906101000a900473ffffffffffffffffffffffffffffffffffffffff1673ffffffffffffffffffffffffffffffffffffffff163373ffffffffffffffffffffffffffffffffffffffff1614151561089557600080fd5b600454341015156108e9576000600660008373ffffffffffffffffffffffffffffffffffffffff1673ffffffffffffffffffffffffffffffffffffffff168152602001908152602001600020600501819055505b50565b6000809054906101000a900473ffffffffffffffffffffffffffffffffffffffff1673ffffffffffffffffffffffffffffffffffffffff163373ffffffffffffffffffffffffffffffffffffffff1614151561094757600080fd5b600073ffffffffffffffffffffffffffffffffffffffff168173ffffffffffffffffffffffffffffffffffffffff161415151561098357600080fd5b80600160006101000a81548173ffffffffffffffffffffffffffffffffffffffff021916908373ffffffffffffffffffffffffffffffffffffffff16021790555050565b6000809054906101000a900473ffffffffffffffffffffffffffffffffffffffff1681565b610a38600660003373ffffffffffffffffffffffffffffffffffffffff1673ffffffffffffffffffffffffffffffffffffffff16815260200190815260200160002060000154346111a7565b600660003373ffffffffffffffffffffffffffffffffffffffff1673ffffffffffffffffffffffffffffffffffffffff16815260200190815260200160002060000181905550565b600080600060011515600660003373ffffffffffffffffffffffffffffffffffffffff1673ffffffffffffffffffffffffffffffffffffffff16815260200190815260200160002060030160009054906101000a900460ff161515141515610ae757600080fd5b600660003373ffffffffffffffffffffffffffffffffffffffff1673ffffffffffffffffffffffffffffffffffffffff1681526020019081526020016000206001015442039250600254600354811515610b3d57fe5b049150818302905080600660003373ffffffffffffffffffffffffffffffffffffffff1673ffffffffffffffffffffffffffffffffffffffff1681526020019081526020016000206000015403600660003373ffffffffffffffffffffffffffffffffffffffff1673ffffffffffffffffffffffffffffffffffffffff168152602001908152602001600020600001819055506000600660003373ffffffffffffffffffffffffffffffffffffffff1673ffffffffffffffffffffffffffffffffffffffff16815260200190815260200160002060030160006101000a81548160ff02191690831515021790555042600660003373ffffffffffffffffffffffffffffffffffffffff1673ffffffffffffffffffffffffffffffffffffffff1681526020019081526020016000206002018190555080600554016005819055507f3c8c64368467899d0a90f17924080d70cc3569df0eac6ef77db2f816393511d9338285604051808473ffffffffffffffffffffffffffffffffffffffff1673ffffffffffffffffffffffffffffffffffffffff168152602001838152602001828152602001935050505060405180910390a1505050565b60035460025402600660003373ffffffffffffffffffffffffffffffffffffffff1673ffffffffffffffffffffffffffffffffffffffff16815260200190815260200160002060000154340110151515610d4e57600080fd5b60001515600660003373ffffffffffffffffffffffffffffffffffffffff1673ffffffffffffffffffffffffffffffffffffffff16815260200190815260200160002060030160009054906101000a900460ff161515141515610db057600080fd5b610dfc600660003373ffffffffffffffffffffffffffffffffffffffff1673ffffffffffffffffffffffffffffffffffffffff16815260200190815260200160002060000154346111a7565b600660003373ffffffffffffffffffffffffffffffffffffffff1673ffffffffffffffffffffffffffffffffffffffff1681526020019081526020016000206000018190555042600660003373ffffffffffffffffffffffffffffffffffffffff1673ffffffffffffffffffffffffffffffffffffffff1681526020019081526020016000206001018190555080600660003373ffffffffffffffffffffffffffffffffffffffff1673ffffffffffffffffffffffffffffffffffffffff1681526020019081526020016000206004019080519060200190610edf9291906111c5565b506001600660003373ffffffffffffffffffffffffffffffffffffffff1673ffffffffffffffffffffffffffffffffffffffff16815260200190815260200160002060030160006101000a81548160ff0219169083151502179055507fd805bf639b208253656bc10258eb3cb9124f6e51033acf136783b613e415d3f133423484604051808573ffffffffffffffffffffffffffffffffffffffff1673ffffffffffffffffffffffffffffffffffffffff16815260200184815260200183815260200180602001828103825283818151815260200191508051906020019080838360005b83811015610fde578082015181840152602081019050610fc3565b50505050905090810190601f16801561100b5780820380516001836020036101000a031916815260200191505b509550505050505060405180910390a150565b6000600660008373ffffffffffffffffffffffffffffffffffffffff1673ffffffffffffffffffffffffffffffffffffffff168152602001908152602001600020600101549050919050565b6000600354905090565b6000801515600660003373ffffffffffffffffffffffffffffffffffffffff1673ffffffffffffffffffffffffffffffffffffffff16815260200190815260200160002060030160009054906101000a900460ff1615151415156110d757600080fd5b600660003373ffffffffffffffffffffffffffffffffffffffff1673ffffffffffffffffffffffffffffffffffffffff1681526020019081526020016000206000015490506000600660003373ffffffffffffffffffffffffffffffffffffffff1673ffffffffffffffffffffffffffffffffffffffff168152602001908152602001600020600001819055503373ffffffffffffffffffffffffffffffffffffffff166108fc829081150290604051600060405180830381858888f1935050505015156111a457600080fd5b50565b60008082840190508381101515156111bb57fe5b8091505092915050565b828054600181600116156101000203166002900490600052602060002090601f016020900481019282601f1061120657805160ff1916838001178555611234565b82800160010185558215611234579182015b82811115611233578251825591602001919060010190611218565b5b5090506112419190611245565b5090565b61126791905b8082111561126357600081600090555060010161124b565b5090565b905600a165627a7a72305820c1f2aa3d6019d3b14840f679e3b11fdbc5c2021895ebf717f0ac17c59b9cf8ff0029",
  "source": "pragma solidity ^ 0.4.17;\n\nimport 'zeppelin-solidity/contracts/math/SafeMath.sol';\n\ncontract ParkingMeter {\n\n    address public owner;\n    address public cityWallet;\n    using SafeMath for uint256;\n    uint256 hourPrice;\n    uint256 maxHours;\n    uint256 fineCost;\n    uint8 public constant decimals = 2;\n    uint256 public cityWalletBalance;\n\n    struct Parking {\n        uint coins;\n        uint startTime;\n        uint endTime;\n        bool isParked;\n        string location;\n        uint scoring;\n    }\n\n    mapping(address => Parking) balances;\n\n\n    function ParkingMeter() public {\n        owner = msg.sender;\n        maxHours = 14400;\n        hourPrice = 400;\n        fineCost = maxHours * hourPrice * 3;\n        cityWalletBalance = 0;\n    }\n\n    function setCityWallet(address _cityWallet) public onlyOwner {\n        require(_cityWallet != address(0));\n        cityWallet = _cityWallet;\n    }\n\n\n    modifier onlyOwner() {\n        require(msg.sender == owner);\n        _;\n    }\n\n    modifier onlyCity() {\n        require(msg.sender == owner || msg.sender == cityWallet);\n        _;\n    }\n\n    function setHourPrice(uint256 price) onlyOwner public {\n        hourPrice = price;\n    }\n\n    function getHourPrice() public constant returns (uint256) {\n        return hourPrice;\n    }\n\n    function setMaxHours(uint256 value) onlyOwner public {\n        maxHours = value;\n    }\n\n    function getMaxHours() public constant returns(uint256) {\n        return maxHours;\n    }\n\n    event LogCarHasParked(address user, uint startTime, uint value, string location);\n\n    function buyCoins() payable public {\n        balances[msg.sender].coins = SafeMath.add(balances[msg.sender].coins, msg.value);\n    }\n\n    function withdrawCoins() public {\n        require(balances[msg.sender].isParked == false);\n        \n        uint valueToSend = balances[msg.sender].coins;\n        balances[msg.sender].coins = 0;\n        msg.sender.transfer(valueToSend);\n    }\n\n    function withdrawCityBalance() public {\n        require(msg.sender == cityWallet);\n        msg.sender.transfer(cityWalletBalance);\n    }\n\n    function startParking(string location) payable public {\n        require ((msg.value + balances[msg.sender].coins) >= (hourPrice * maxHours));\n        \n        require(balances[msg.sender].isParked == false);\n\n        balances[msg.sender].coins = SafeMath.add(balances[msg.sender].coins, msg.value);\n        balances[msg.sender].startTime = block.timestamp;\n        balances[msg.sender].location = location;\n        balances[msg.sender].isParked = true;\n        \n        LogCarHasParked(msg.sender, block.timestamp, msg.value, location);\n    }\n\n    \n    event LogCarHasLeft(address user, uint cost, uint time);\n\n    function stopParking() public {\n        require(balances[msg.sender].isParked == true);\n        uint256 time = block.timestamp - balances[msg.sender].startTime;\n        uint256 costPerSecond = maxHours / hourPrice;\n        uint256 cost = time * costPerSecond;\n        balances[msg.sender].coins = balances[msg.sender].coins - cost;\n        balances[msg.sender].isParked = false;\n        balances[msg.sender].endTime = block.timestamp;\n        cityWalletBalance = cityWalletBalance + cost;\n        LogCarHasLeft(msg.sender, cost, time);\n    }\n\n    function getCoins() public constant returns(uint256) {\n        return balances[msg.sender].coins;\n    }\n\n    function isParked(address user) public constant returns(bool) {\n        return balances[user].isParked;\n    }\n\n    function whenParked(address user) public constant returns(uint) {\n        return balances[user].startTime;\n    }\n\n    function banUser(address user) onlyCity public {\n        balances[user].scoring = SafeMath.add(balances[user].scoring, 1);\n    }\n\n    function resetScoring(address user) payable public {\n        require (msg.sender == cityWallet);\n        if (msg.value >= fineCost) {\n            balances[user].scoring = 0;\n        }\n    }\n\n\n\n}",
  "sourcePath": "C:\\Users\\matia\\Documents\\repositorio\\parquimetro\\contracts\\ParkingMeter.sol",
  "compiler": {
    "name": "solc",
    "version": "0.4.18+commit.9cf6e910.Emscripten.clang"
  },
  "schemaVersion": "1.0.1",
  "updatedAt": "2017-11-29T20:19:47.670Z"
}